:100000000C947C000C94A4000C94A4000C94A40008
:100010000C94A4000C94A4000C94A4000C94A400D0
:100020000C94A4000C94A4000C94A4000C94A400C0
:100030000C94A4000C94A4000C94A4000C94A400B0
:100040000C941E040C94A4000C9456020C946E01A3
:100050000C94A4000C94A4000C94A4000C94A40090
:100060000C94A4000C94A4004E414E494E4954599E
:10007000494E46CDCCCC3D0AD7233C17B7D1387773
:10008000CC2B329595E6241FB14F0A000020410089
:1000900000C84200401C4620BCBE4CCA1B0E5AAED3
:1000A000C59D7400000000240027002A0000000005
:1000B00000250028002B00040404040404040402A6
:1000C00002020202020303030303030102040810F5
:1000D00020408001020408102001020408102000C2
:1000E00000000800020100000304070000000000F7
:1000F000000000001F0EB40D11241FBECFEFD8E08A
:10010000DEBFCDBF12E0A0E0B1E0E8E9FAE202C054
:1001100005900D92AC3FB107D9F723E0ACEFB2E008
:1001200001C01D92AF3CB207E1F710E0CBE7D0E091
:1001300004C02197FE010E941913CA37D107C9F7DD
:100140000E9493070C943F150C940000CF92DF920D
:10015000EF92FF920F931F93CF93DF936C017A017D
:100160008B01C0E0D0E0CE15DF0589F0D8016D919C
:100170008D01D601ED91FC910190F081E02DC60139
:100180000995892B11F47E0102C02196ECCFC7019D
:10019000DF91CF911F910F91FF90EF90DF90CF9063
:1001A00008950E941615FC0180819181009711F03D
:1001B0000C94710E60E070E0CB010895FC01248185
:1001C0003581232B31F421E061157105A1F0FB018C
:1001D00008C0FC01808191816115710531F421E035
:1001E000FC018081882339F005C00E942F1521E091
:1001F000892B09F020E0822F089580E293E00E948D
:10020000C90121E0892B09F420E0822F08950F9382
:100210001F93CF93DF93EC0188819981009729F098
:100220002A813B812617370788F48B016F5F7F4F48
:100230000E944C14009761F0998388831B830A8382
:100240002C813D81232B11F4FC01108281E001C03F
:1002500080E0DF91CF911F910F910895EF92FF926F
:100260000F931F93CF93DF93EC017B018A01BA01B7
:100270000E9407012881398181110DC021153105A6
:1002800019F0C9010E94B413198218821D821C82C0
:100290001B821A8206C01D830C83B701C9010E940C
:1002A0003815CE01DF91CF911F910F91FF90EF9004
:1002B0000895FC0111821082138212821582148229
:1002C0006115710551F0FB0101900020E9F73197AC
:1002D000AF01461B570B0C942E0108951F920F92ED
:1002E0000FB60F9211242F933F934F935F936F9309
:1002F0007F938F939F93AF93BF93EF93FF9380E28E
:1003000093E00E948802FF91EF91BF91AF919F917E
:100310008F917F916F915F914F913F912F910F90AE
:100320000FBE0F901F901895089580E090E00895FB
:10033000FC01538D448D252F30E0842F90E0821BEB
:10034000930B541710F0CF96089501970895FC0170
:10035000918D828D981761F0828DDF01A80FB11DFC
:100360005D968C91928D9F5F9F73928F90E0089520
:100370008FEF9FEF0895FC01918D828D981731F0DA
:10038000828DE80FF11D858D90E008958FEF9FEF2E
:100390000895FC01918D228D892F90E0805C9F4F04
:1003A000821B91098F7399270895CF93DF93EB01F7
:1003B0000E9452118883CE01DF91CF9108950F934F
:1003C0001F93CF93DF938C01EB010E94521188831E
:1003D000C80101960E9452118983CE01DF91CF910D
:1003E0001F910F910895EF92FF920F931F93CF9358
:1003F000DF9300D0CDB7DEB780910503811147C0F0
:1004000001E080E293E00E94C901892B09F43FC01A
:1004100080E293E00E94A701182F8A3021F08B33ED
:1004200011F08D3019F40093050323C089831A82DB
:10043000E090C703F090C8038FEFE81AF80AB701FD
:1004400083EC93E00E940701882399F02091C30375
:100450003091C4038091C7039091C803BE016F5FC0
:100460007F4F820F931F0E943815F092C803E092CD
:10047000C70380910101882321F2812F0E94640625
:100480001D3009F0BECF8AE00E946406BACF0F90FB
:100490000F90DF91CF911F910F91FF90EF900895F2
:1004A0000E94FD0081110C94F30108951F920F9298
:1004B0000FB60F9211242F938F939F93EF93FF9377
:1004C000E0913003F09131038081E0913603F091A7
:1004D000370382FD12C09081809139038F5F8F7343
:1004E00020913A03821751F0E0913903F0E0E05E89
:1004F000FC4F958F8093390301C08081FF91EF916C
:100500009F918F912F910F900FBE0F901F90189574
:10051000FC01848DDF01A80FB11DA35ABF4F2C91A0
:10052000848D90E001968F739927848FA689B7896F
:100530002C93A089B1898C9180648C93938D848D48
:10054000981306C00288F389E02D80818F7D808317
:100550000895EF92FF920F931F93CF93DF93EC01D7
:1005600081E0888F9B8D8C8D981305C0E889F9896F
:10057000808185FD24C0F62E0B8D10E00F5F1F4F8C
:100580000F731127E02E8C8DE8120CC00FB607FCFC
:10059000FACFE889F989808185FFF5CFCE010E94E5
:1005A0008802F1CF8B8DFE01E80FF11DE35AFF4F5A
:1005B000F0820B8FEA89FB898081806207C0EE8917
:1005C000FF896083E889F98980818064808381E084
:1005D00090E0DF91CF911F910F91FF90EF900895E0
:1005E000CF93DF93EC01888D8823C9F0EA89FB89DA
:1005F000808185FD05C0A889B9898C9186FD0FC0D1
:100600000FB607FCF5CF808185FFF2CFA889B989A5
:100610008C9185FFEDCFCE010E948802E7CFDF915C
:10062000CF91089590E0FC01E152FF4F3491FC011D
:10063000E553FF4F2491FC01E954FF4FE491EE2371
:1006400009F43BC0332339F1333091F038F43130C1
:10065000A9F0323001F584B58F7D12C0373091F0AA
:100660003830A1F03430B9F4809180008F7D03C020
:10067000809180008F77809380000DC084B58F7744
:1006800084BD09C08091B0008F7703C08091B00015
:100690008F7D8093B000F0E0EE0FFF1FE355FF4F1A
:1006A000A591B4918FB7F894EC91611103C0209596
:1006B0002E2301C02E2B2C938FBF0895CF93DF9351
:1006C00090E0FC01E553FF4F2491FC01E954FF4FFA
:1006D0008491882361F190E0880F991FFC01ED550A
:1006E000FF4FC591D491FC01E355FF4FA591B49103
:1006F000611109C09FB7F89488812095822388836F
:10070000EC912E230BC0623061F49FB7F8943881CE
:10071000822F809583238883EC912E2B2C939FBF6F
:1007200006C08FB7F894E8812E2B28838FBFDF9106
:10073000CF9108951F93CF93DF93182FEB0161E0C2
:100740000E945E03209711F460E004C0CF3FD10502
:1007500039F461E0812FDF91CF911F910C94120346
:10076000E12FF0E0E152FF4FE491E330F9F048F47B
:10077000E130B9F0E230A1F584B5806284BDC8BD36
:1007800034C0E730E9F0E83019F1E43049F5809100
:100790008000806280938000D0938B00C0938A0099
:1007A00024C084B5806884BDC7BD1FC0809180000F
:1007B000806880938000D0938900C093880015C022
:1007C0008091B00080688093B000C093B3000DC0EA
:1007D0008091B00080628093B000C093B40005C0E7
:1007E000C038D1050CF0B5CFAFCFDF91CF911F91BD
:1007F00008953FB7F89480911C0390911D03A09138
:100800001E03B0911F0326B5A89B05C02F3F19F00A
:100810000196A11DB11D3FBFBA2FA92F982F882780
:10082000820F911DA11DB11DBC01CD0142E0660FDB
:10083000771F881F991F4A95D1F708951F920F922D
:100840000FB60F9211242F933F938F939F93AF93E3
:10085000BF938091FC029091FD02A091FE02B091A5
:10086000FF0230911B0323E0230F2D3720F4019664
:10087000A11DB11D05C026E8230F0296A11DB11DC3
:1008800020931B038093FC029093FD02A093FE0231
:10089000B093FF0280911C0390911D03A0911E0351
:1008A000B0911F030196A11DB11D80931C0390936D
:1008B0001D03A0931E03B0931F03BF91AF919F919F
:1008C0008F913F912F910F900FBE0F901F90189511
:1008D0008E3008F08E508770806480937C00809109
:1008E0007A00806480937A0080917A0086FDFCCF44
:1008F000609178008091790070E0782B072E000CD1
:10090000880B990B0E94321020910401309105014F
:1009100040910601509107010E949110209101031E
:100920003091020340910303509104030E94FB1194
:100930000E94D912CB01089585E692E00E94060636
:100940008091190390911A030E94AB068CE692E005
:100950000E94060680911703909118030E94AB062F
:1009600083E792E00E9406068091110390911203A2
:100970000E94AB068BE792E00E94060680910F036F
:10098000909110030E94AB0682E892E00E94060656
:1009900080910D0390910E030E94AB068AE892E0CD
:1009A0000E94060680910B0390910C030E94AB06F7
:1009B00081E992E00E94060680910A0390E00E947D
:1009C000AB0688E992E00E940606809108019091AA
:1009D00009010E94AB068AE992E00E940606609136
:1009E00006037091070380910803909109030E9408
:1009F0006F0683E491E00C94B305809100038111AC
:100A000014C080910101882381F04091C10350916D
:100A1000C2036091BD037091BE0380E293E00E9427
:100A2000A60083EA92E00C9406060895EF92FF92E6
:100A30000F931F93CF93DF9300D0CDB7DEB71A8209
:100A40001982BE016F5F7F4F80E090E00E94DF015E
:100A500089819A81019789F086EA92E00E940606D0
:100A600089819A810E94AB0681ED92E00E94060680
:100A700081E090E00E9499066DC060E171E082E043
:100A800090E00E94D5016BE071E083E090E00E946D
:100A9000D5016AE071E084E090E00E94D50163E155
:100AA00073E085E090E00E94DF0165E173E087E09C
:100AB00090E00E94DF016EE071E089E090E00E942A
:100AC000DF016CE071E08BE090E00E94DF0124E048
:100AD000E22E21E0F22E0DE010E0C8010E9452113A
:100AE000F70181937F010F5F1F4F01311105A9F7B6
:100AF00091E0E92E93E0F92EC8010E945211F7010E
:100B000081937F010F5F1F4F05311105A9F762E047
:100B100071E085E190E00E94DF0161E071E087E132
:100B200090E00E94D50160E073E088E190E00E94CF
:100B3000D5018DEBE82E83E0F82E09E110E0C80125
:100B40000E945211F70181937F010F5F1F4F0F31F8
:100B50001105A9F70F900F90DF91CF911F910F9181
:100B6000FF90EF900895009769F0FC01019000203C
:100B7000E9F73197AF01481B590BBC0180E293E0C4
:100B80000C94A60080E090E008958F929F92AF921F
:100B9000BF920F931F93CF93DF93CDB7DEB7A1978B
:100BA0000FB6F894DEBF0FBECDBF19A2423008F4D5
:100BB0004AE08E010F5D1F4F842E912CA12CB12C89
:100BC000A50194010E94C911E62FB901CA01015083
:100BD0001109EA3014F4E05D01C0E95CD801EC933E
:100BE000232B242B252B61F7C8010E94B305A19666
:100BF0000FB6F894DEBF0FBECDBFDF91CF911F912E
:100C00000F91BF90AF909F908F9008950C94B30573
:100C1000DF92EF92FF920F931F93CF93DF937C01AC
:100C2000EB018A014617570720F48D2FEA01062FA2
:100C3000182F65E471E0C7010E9459018091C70334
:100C40009091C803C817D907B0F58017910708F429
:100C50008C01E091C303F091C403E00FF11FD08039
:100C600010826091C3037091C4036C0F7D1F6115E6
:100C7000710561F0FB0101900020E9F73197AF01A8
:100C8000461B570BC7010E942E010EC0F701808141
:100C90009181009711F00E94B413F7011182108224
:100CA0001582148213821282E091C303F091C4036F
:100CB000E00FF11FD082C701DF91CF911F910F91FB
:100CC000FF90EF90DF900895E0912003F0912103D1
:100CD0000190F081E02D682F80E293E00994CF929B
:100CE000DF92EF92FF92CF93DF9397FF19C06B01D2
:100CF0007C018DE20E946406EC0166277727CB0118
:100D00006C197D098E099F094AE00E94C5058C0F68
:100D10009D1FDF91CF91FF90EF90DF90CF900895CE
:100D20004AE0DF91CF91FF90EF90DF90CF900C944D
:100D3000C505CF93DF93BC01990F880B990B0E94D7
:100D40006F06EC0183E491E00E94B3058C0F9D1FB8
:100D5000DF91CF910895BC01990F880B990B0C94EA
:100D60006F06CF93DF930E94B305EC0183E491E01B
:100D70000E94B3058C0F9D1FDF91CF9108954F9274
:100D80005F926F927F928F929F92AF92BF92CF921B
:100D9000DF92EF92FF926B017C01B42E9B01AC01BC
:100DA0000E941413882319F08FEE92E027C02601C9
:100DB0003701E89477F82FEF3FEF4FE75FE7C30184
:100DC000B2010E94141381110DC02FEF3FEF4FE7C6
:100DD0005FE7C301B2010E942B1018161CF483EFC9
:100DE00092E00CC02FEF3FEF4FE75FE4C701B60181
:100DF0000E940F13181684F487EF92E0FF90EF9093
:100E0000DF90CF90BF90AF909F908F907F906F902A
:100E10005F904F900C94B3052FEF3FEF4FE75FECDF
:100E2000C701B6010E942B1087FDE6CF20E030E01D
:100E3000A901C701B6010E942B1087FF09C08DE2EE
:100E40000E9464064C01F7FAF094F7F8F09402C09F
:100E5000812C912CA12C60E070E080E09FE3AB142A
:100E600041F020E030E040E251E40E946712A39498
:100E7000F6CF9B01AC01C701B6010E94FB112B010B
:100E80003C010E94E0126B017C010E9430109B012A
:100E9000AC01C301B2010E94FA112B013C014AE0EE
:100EA000C701B6010E94C5057C01E80CF91CBB20F6
:100EB00029F08EE20E946406E80EF91EDB2CDD208C
:100EC00021F120E030E040E251E4C301B2010E9490
:100ED00091102B013C010E94E0124B01A12CB12C7E
:100EE0004AE0C501B4010E94C505E80EF91EC5011E
:100EF000B4010E9430109B01AC01C301B2010E94F9
:100F0000FA112B013C01DA94DACFC701FF90EF9080
:100F1000DF90CF90BF90AF909F908F907F906F9019
:100F20005F904F900895CF93DF93CDB7DEB7609772
:100F30000FB6F894DEBF0FBECDBF789484B5826043
:100F400084BD84B5816084BD85B5826085BD85B56D
:100F5000816085BD80916E00816080936E001092EB
:100F60008100809181008260809381008091810066
:100F700081608093810080918000816080938000F7
:100F80008091B10084608093B1008091B000816055
:100F90008093B00080917A00846080937A00809181
:100FA0007A00826080937A0080917A0081608093D9
:100FB0007A0080917A00806880937A001092C10054
:100FC00061E08BE00E945E0361E08AE00E945E03C4
:100FD00061E089E00E945E0361E08DE00E945E03B3
:100FE00061E088E00E945E0360E08FE00E945E03A3
:100FF00060E080E10E945E0360E081E10E945E03A8
:1010000060E08BE00E94120360E08AE00E9412031D
:1010100060E089E00E941203E0913003F091310317
:1010200082E08083E0912C03F0912D031082E09107
:101030002E03F0912F038FEC808310923803E09100
:101040003403F091350386E08083E0913203F09120
:101050003303808180618083E0913203F091330318
:10106000808188608083E0913203F0913303808136
:1010700080688083E0913203F091330380818F7D1B
:10108000808368EC70E083EC93E00E9407010E948B
:1010900016050E94FD040FEF10E06CE3462E512C64
:1010A000612C712C22242394312C10921A0310925B
:1010B00019031092180310921703809110018823CE
:1010C00009F464C08FE090E00E94680490931A03D2
:1010D00080931903C0900E01D0900F018C159D05CF
:1010E0004CF480911503909116039093180380930C
:1010F000170336C0E0910C01F0910D01E817F907D4
:101100007CF10D2C000CEE08FF08AC01990F660B6A
:10111000770B9A01AB012C193D094E095F09AFED20
:10112000B0E00E9487114F01FF0FAA08BB08A5017C
:1011300094012C193D094E095F090E946811BA01FA
:10114000A901405E5F4F6F4F7F4F809113039091D5
:1011500014039C01240F351F3093180320931703A9
:1011600080911703909118038F3F910529F024F087
:10117000109318030093170380911703909118039D
:1011800097FF04C0109218031092170310921203D5
:10119000109211031092100310920F0380910B0113
:1011A000882309F464C080E190E00E946804909371
:1011B000120380931103C0900E01D0900F018C1583
:1011C0009D054CF4809115039091160390931003A4
:1011D00080930F0336C0E0910C01F0910D01E817E8
:1011E000F9077CF10D2C000CEE08FF08AC01990FFB
:1011F000660B770B9A01AB012C193D094E095F096B
:10120000AFEDB0E00E9487114F01FF0FAA08BB08A5
:10121000A50194012C193D094E095F090E9468112E
:10122000BA01A901405E5F4F6F4F7F4F809113035A
:10123000909114039C01240F351F309310032093C9
:101240000F0380910F03909110038F3F910529F0B8
:1012500024F01093100300930F0380910F039091DB
:10126000100397FF04C01092100310920F03109206
:101270000E0310920D0310920C0310920B03809139
:101280000A01882309F464C081E190E00E946804A7
:1012900090930E0380930D03C0900E01D0900F0128
:1012A0008C159D054CF48091150390911603909335
:1012B0000C0380930B0336C0E0910C01F0910D01FB
:1012C000E817F9077CF10D2C000CEE08FF08AC01C3
:1012D000990F660B770B9A01AB012C193D094E094A
:1012E0005F09AFEDB0E00E9487114F01FF0FAA0820
:1012F000BB08A50194012C193D094E095F090E9404
:101300006811BA01A901405E5F4F6F4F7F4F809116
:101310001303909114039C01240F351F30930C0389
:1013200020930B0380910B0390910C038F3F910549
:1013300029F024F010930C0300930B0380910B030E
:1013400090910C0397FF04C010920C0310920B03B2
:1013500010920A038091080190910901181619064C
:1013600084F120910C0130910D01409119035091AD
:101370001A03241735077CF0409111035091120392
:101380002417350744F040910D0350910E032417A4
:1013900035070CF056C00097A1F440910603509118
:1013A000070360910803709109034F5F5F4F6F4F10
:1013B0007F4F409306035093070360930803709395
:1013C000090321E020930A0320911001222321F038
:1013D000109318030093170320910B01222321F08F
:1013E0001093100300930F0320910A01222321F090
:1013F00010930C0300930B03019797FD05C0909386
:1014000009018093080104C010920901109208019B
:101410008091060390910703A0910803B0910903FE
:10142000813A9648A140B10564F080EA96E8A1E0CF
:10143000B0E08093060390930703A0930803B09352
:10144000090360911703709118036115710529F460
:1014500060E08BE00E94120303C08BE00E949A03BD
:1014600060910F03709110036115710529F460E01C
:101470008AE00E94120303C08AE00E949A036091EE
:101480000B0370910C036115710529F460E089E08C
:101490000E94120303C089E00E949A038091050311
:1014A000882309F414C38091C7039091C803892B42
:1014B00081F0C090C303D090C4036DE370E0C60117
:1014C0000E942415009729F07C01EC18FD08F7FE16
:1014D000BBC165E471E083EC93E00E94DE00811102
:1014E000EAC269E271E083EC93E00E94DE008823A7
:1014F00019F180E391E00E94060660910401709169
:101500000501809106019091070142E00E94BF060B
:1015100089E391E00E940606609101037091020345
:10152000809103039091040342E00E94BF0683E48C
:1015300091E00E94B305BFC266E471E083EC93E0E2
:101540000E94DE00882399F081E591E00E94060662
:1015500080910E0190910F010E94AB068AE591E007
:101560000E94060680910C0190910D011AC064E65C
:1015700071E083EC93E00E94DE008823A9F088E606
:1015800091E00E94060680911303909114030E943B
:10159000AB0680E791E00E940606809115039091CA
:1015A00016030E94990687C26BE771E083EC93E013
:1015B0000E94DE00882349F081E891E00E9406063F
:1015C0008091020190910301ECCF68E871E083EC17
:1015D00093E00E94DE00882349F0109206031092E7
:1015E000070310920803109209039EC068E971E096
:1015F00083EC93E00E94DE00882309F48BC03886D8
:101600002F82BE01695F7F4F80E090E00E94F80D5D
:1016100060E171E082E090E00E94E00D6BE071E03B
:1016200083E090E00E94E00D6AE071E084E090E0E9
:101630000E94E00D63E173E085E090E00E94F80D08
:1016400065E173E087E090E00E94F80D6EE071E0E4
:1016500089E090E00E94F80D6CE071E08BE090E092
:101660000E94F80D44E0C42E41E0D42E5DE0E52E4A
:10167000F12CD6016D916D01FA82E982CE010196BD
:101680000E94C00DBFEFEB1AFB0AE1E1EE16F10478
:1016900081F721E0C22E23E0D22E31E1E32EF12C9E
:1016A000D6016D916D01FA82E982CE0101960E9408
:1016B000C00DBFEFEB1AFB0AE5E1EE16F10481F76E
:1016C00062E071E085E190E00E94F80D61E071E078
:1016D00087E190E00E94E00D60E073E088E190E037
:1016E0000E94E00D8DEBC82E83E0D82E99E1E92E03
:1016F000F12CD6016D916D01FA82E982CE0101963D
:101700000E94C00DBFEFEB1AFB0AEFE1EE16F104E9
:1017100081F70AC064EA71E083EC93E00E94DE0086
:10172000882339F00E94160585E991E00E94B106F0
:10173000C2C160EB71E083EC93E00E94DE0088237D
:1017400051F01A821982BE016F5F7F4F80E090E0F6
:101750000E94F80DE9CF6DEB71E083EC93E00E94FD
:10176000DE00882309F452C084EC91E00E94060652
:101770002FB7F8946091FC027091FD028091FE02F7
:101780009091FF022FBF28EE33E040E050E00E942E
:10179000C911CA01B901A30192010E9468116B012C
:1017A0007C01CA01B901A30192010E9468114B0199
:1017B0005C01CA01B90128E130E040E050E00E943C
:1017C00068116D877E878F87988BCA01B9010E9447
:1017D0006F068CEC91E00E9406066D857E858F85F4
:1017E00098890E946F068FEC91E00E940606C50161
:1017F000B4010E946F0682ED91E00E940606C701C7
:10180000B6010E946F068FE491E090CF65ED71E024
:1018100083EC93E00E94DE00882321F0E0E0F0E01A
:10182000099549C16BED71E083EC93E00E94DE0005
:10183000882319F00E949C043EC182EE91E00E9430
:1018400006060E94570E37C1A70160E070E0CE0186
:1018500007960E9408064091C7035091C803B7013C
:101860006F5F7F4FCE0101960E9408066FEE71E018
:10187000CE0107960E94DE00882399F089819A8123
:10188000009719F00E946D0E03C060E070E0CB017C
:101890006093040170930501809306019093070102
:1018A00016C067EF71E0CE0107960E94DE00882324
:1018B00099F0CE0101960E94D3000E9432106093ED
:1018C000010370930203809303039093040385E95B
:1018D00091E00E94B106E7C06FEF71E0CE0107967C
:1018E0000E94DE00882349F0CE0101960E94D300B9
:1018F00070930F0160930E01EACF67E072E0CE01B2
:1019000007960E94DE00882349F0CE0101960E94CE
:10191000D30070930D0160930C01D9CF6FE072E09A
:10192000CE0107960E94DE00882349F0CE01019681
:101930000E94D3007093140360931303C8CF66E131
:1019400072E0CE0107960E94DE00882349F0CE01A6
:1019500001960E94D3007093160360931503B7CFCE
:101960006FE172E0CE0107960E94DE00882349F005
:10197000CE0101960E94D300709309016093080183
:10198000A6CF68E272E0CE0107960E94DE008823AF
:1019900069F060E372E0CE0101960E94DE0091E002
:1019A000811101C090E09093000391CF65E372E054
:1019B000CE0107960E94DE00882379F060E372E092
:1019C000CE0101960E94DE0091E0811101C090E0FD
:1019D0009093100160E08BE016C06DE372E0CE01E1
:1019E00007960E94DE00882389F060E372E0CE0152
:1019F00001960E94DE0091E0811101C090E0909379
:101A00000B0160E08AE00E94120361CF65E472E09E
:101A1000CE0107960E94DE00882379F060E372E031
:101A2000CE0101960E94DE0091E0811101C090E09C
:101A300090930A0160E089E0E6CF6DE472E0CE01A8
:101A400007960E94DE00882369F060E372E0CE0111
:101A500001960E94DE0091E0811101C090E0909318
:101A6000010135CF6BE771E0CE0107960E94DE00E1
:101A7000882399F0CE0101960E94D3007093030150
:101A800060930201683C71050CF021CF88EC90E076
:101A900090930301809302011ACF88E592E00E949F
:101AA00006060E94570E89819A810E94B4138F8185
:101AB00098850E94B4130E94FD0440E050E065E464
:101AC00071E083EC93E00E942E0110920503809157
:101AD000000381110E949C04F09000016F2D8DE0A5
:101AE0000E94120380910A03811102C0FF2011F0AD
:101AF00061E001C060E088E00E94120381E0F82606
:101B0000F0920001C0900201D09003010D2C000C56
:101B1000EE08FF080E94F9034B015C01C114D104D7
:101B2000E104F104F1F00E94F903DC01CB01881912
:101B30009909AA09BB09883E9340A105B10570F334
:101B4000F1E0CF1AD108E108F10828EE820E23E077
:101B5000921EA11CB11CC114D104E104F10419F7B7
:101B6000DDCF0E945002A1CA8091BD039091BE03B7
:101B70000E94B4138091C3039091C4030C94B413D6
:101B8000EF92FF920F931F93CF93DF931F92CDB7E6
:101B9000DEB77C01FC0100811181C80169830E94CC
:101BA00052116981681719F0C8010E945A11C701C2
:101BB0000F90DF91CF911F910F91FF90EF900895BB
:101BC0000F931F93CF93DF9300D0CDB7DEB78B0178
:101BD000FB0160819A838983CE0101960E94C00D2A
:101BE000C8010F900F90DF91CF911F910F91089531
:101BF000EF92FF920F931F93CF93DF9300D0CDB757
:101C0000DEB78C017B01FB0160819A838983CE0161
:101C100001960E94C00DF70161810F5F1F4F1A836B
:101C20000983CE0101960E94C00DC7010F900F904D
:101C3000DF91CF911F910F91FF90EF900895E0E217
:101C4000F3E01382128288EE93E0A0E0B0E0848398
:101C50009583A683B7838BE191E09183808385ECA4
:101C600090E09587848784EC90E09787868780EC66
:101C700090E0918B808B81EC90E0938B828B82EC57
:101C800090E0958B848B86EC90E0978B868B118E01
:101C9000128E138E148E65E471E083EC93E00E9443
:101CA000590164EE72E08DEB93E00C945901CF93EF
:101CB000DF93E3ECF3E0448155816081718180E240
:101CC00093E00E94A600EC0183E491E00E94B3053A
:101CD0008C0F9D1FDF91CF910895662777270C9475
:101CE000AD0E1F93FC0199278827BC01E894119140
:101CF0001032E9F3193010F01E30C8F31B3251F0E6
:101D00001D3249F4689406C00E94980E610F711D3F
:101D1000811D911D119110531A30B0F33EF490952E
:101D20008095709561957F4F8F4F9F4F1F910895BC
:101D3000592F482F372F262F660F771F881F991F7F
:101D4000660F771F881F991F620F731F841F951FCF
:101D5000660F771F881F991F0895A0E0B0E0E3EB9E
:101D6000FEE00C949611EC017B016115710519F0F0
:101D7000DB018D939C938E010F5F1F4F7880872D21
:101D800090E00E940A10892B11F0E801F4CFBDE227
:101D90007B1205C00F5F1F4F7980C1E008C0EBE2E6
:101DA0007E1204C08E010E5F1F4F7980C0E0680173
:101DB000F1E0CF1AD10843E050E060E770E0C601DF
:101DC0000E941310892BF1F4680122E0C20ED11C8D
:101DD00045E050E06BE670E0C6010E941310892BCD
:101DE00021F4680187E0C80ED11CE114F10419F058
:101DF000D701CD92DC92C111FFC060E070E080E8B5
:101E00009FE703C143E050E068E670E0C6010E942E
:101E10001310892B51F4E114F10409F4F2C00E5FA0
:101E20001F4FF70111830083ECC0680160E070E090
:101E3000CB0100E010E0F601D0EDD70DDA3058F517
:101E40002C2F2260622E2C2F2870C2FF05C021117A
:101E500028C00F5F1F4F25C0222311F00150110928
:101E6000A5E0B0E09B01AC010E9487114B015C0131
:101E7000880C991CAA1CBB1CC501B4016D0F711DF7
:101E8000811D911D6839A9E97A078A07A9E19A0796
:101E900040F0C66005C0DE3F51F4C3FD44C0C860D9
:101EA0006C2EBFEFCB1ADB0A7080C62DC4CF2D2F4E
:101EB0002F7D2531C1F540814D3211F4C06106C03E
:101EC0004B3221F0319621E030E006C03296D60147
:101ED00011964C9122E030E0A0EDA40FAA3018F04A
:101EE000E21BF30B20C040E050E04038BCE05B0751
:101EF0005CF49A01220F331F220F331F420F531F2E
:101F0000440F551F4A0F511D3196DF0111972C9137
:101F1000A0EDA20FAA3048F3C4FF03C0519541952C
:101F20005109040F151FC1FF07C0E114F10421F08E
:101F30003197D701ED93FC930E943010C370C330EA
:101F400019F06B017C0106C06B017C01F7FAF0947B
:101F5000F7F8F09420E030E0A901C701B6010E9433
:101F60002B10882309F445C017FF06C01195019571
:101F70001109C7E8D0E002C0CFE9D0E05E01B8E1C6
:101F8000AB1AB1084601BE2DAF2D90E2E92EF12C1F
:101F90000E151F0584F0FE01259135914591549150
:101FA000B4018B2F9A2F0E9491104B01B82FA92FAB
:101FB0000E191F09EDCF2497F594E794CA15DB0598
:101FC00039F76401EB2EFA2E8E2D880F8F2D881F86
:101FD0008F3F49F020E030E0A901C701B6010E941F
:101FE0002B10811106C082E290E09093CA03809387
:101FF000C903C701B60109C060E070E080E89FEF47
:1020000004C060E070E080EC9FE7CDB7DEB7EEE0A3
:102010000C94B21191110C94FE10803219F0895079
:102020008550C8F70895FB01DC014150504088F00D
:102030008D9181341CF08B350CF4805E6591613498
:102040001CF06B350CF4605E861B611171F3990B0B
:102050000895881BFCCF0E946D1008F481E008955C
:10206000E89409C097FB3EF4909580957095619532
:102070007F4F8F4F9F4F9923A9F0F92F96E9BB27E8
:102080009395F695879577956795B795F111F8CF64
:10209000FAF4BB0F11F460FF1BC06F5F7F4F8F4FCF
:1020A0009F4F16C0882311F096E911C0772321F0C5
:1020B0009EE8872F762F05C0662371F096E8862F5D
:1020C00070E060E02AF09A95660F771F881FDAF7B4
:1020D000880F9695879597F90895990F0008550FE1
:1020E000AA0BE0E8FEEF16161706E807F907C0F09E
:1020F00012161306E407F50798F0621B730B840BA6
:10210000950B39F40A2661F0232B242B252B21F47F
:1021100008950A2609F4A140A6958FEF811D811D1F
:1021200008950E94A4100C9418110E940A1138F00E
:102130000E94111120F0952311F00C9401110C94C0
:10214000071111240C944C110E94291170F3959FD2
:10215000C1F3950F50E0551F629FF001729FBB279E
:10216000F00DB11D639FAA27F00DB11DAA1F649F3A
:102170006627B00DA11D661F829F2227B00DA11DED
:10218000621F739FB00DA11D621F839FA00D611D73
:10219000221F749F3327A00D611D231F849F600D94
:1021A000211D822F762F6A2F11249F5750409AF0BD
:1021B000F1F088234AF0EE0FFF1FBB1F661F771F49
:1021C000881F91505040A9F79E3F510580F00C9414
:1021D00001110C944C115F3FE4F3983ED4F38695C3
:1021E00077956795B795F795E7959F5FC1F7FE2BB4
:1021F000880F911D9695879597F9089599278827B7
:10220000089597F99F6780E870E060E008959FEF78
:1022100080EC089500240A9416161706180609067D
:10222000089500240A94121613061406050608954C
:10223000092E0394000C11F4882352F0BB0F40F4D4
:10224000BF2B11F460FF04C06F5F7F4F8F4F9F4F14
:10225000089557FD9058440F551F59F05F3F71F096
:102260004795880F97FB991F61F09F3F79F08795FD
:102270000895121613061406551FF2CF4695F1DF86
:1022800008C0161617061806991FF1CF8695710516
:10229000610508940895E894BB2766277727CB014A
:1022A00097F90895F999FECF92BD81BDF89A9927C3
:1022B00080B50895262FF999FECF1FBA92BD81BD32
:1022C00020BD0FB6F894FA9AF99A0FBE01960895B8
:1022D000052E97FB1EF400940E947F1157FD07D036
:1022E0000E94C91107FC03D04EF40C947F11509545
:1022F0004095309521953F4F4F4F5F4F08959095F2
:102300008095709561957F4F8F4F9F4F08950E94E4
:10231000EB11A59F900DB49F900DA49F800D911D72
:10232000112408952F923F924F925F926F927F9265
:102330008F929F92AF92BF92CF92DF92EF92FF92D5
:102340000F931F93CF93DF93CDB7DEB7CA1BDB0B81
:102350000FB6F894DEBF0FBECDBF09942A88398826
:1023600048885F846E847D848C849B84AA84B9842D
:10237000C884DF80EE80FD800C811B81AA81B98139
:10238000CE0FD11D0FB6F894DEBF0FBECDBFED014D
:102390000895A1E21A2EAA1BBB1BFD010DC0AA1FA6
:1023A000BB1FEE1FFF1FA217B307E407F50720F0BE
:1023B000A21BB30BE40BF50B661F771F881F991F39
:1023C0001A9469F760957095809590959B01AC0182
:1023D000BD01CF010895A29FB001B39FC001A39F8B
:1023E000700D811D1124911DB29F700D811D11244E
:1023F000911D08955058BB27AA270E9412120C94D1
:1024000018110E940A1138F00E94111120F039F4BD
:102410009F3F19F426F40C9407110EF4E095E7FBA6
:102420000C940111E92F0E94291158F3BA17620781
:1024300073078407950720F079F4A6F50C944B11E7
:102440000EF4E0950B2EBA2FA02D0B01B9019001CF
:102450000C01CA01A0011124FF27591B99F0593F13
:1024600050F4503E68F11A16F040A22F232F342F5B
:102470004427585FF3CF469537952795A795F040A9
:102480005395C9F77EF41F16BA0B620B730B840BBE
:10249000BAF09150A1F0FF0FBB1F661F771F881F76
:1024A000C2F70EC0BA0F621F731F841F48F48795CE
:1024B00077956795B795F7959E3F08F0B0CF9395C0
:1024C000880F08F09927EE0F9795879508950E9439
:1024D0007B120C9418110E94111158F00E940A11DD
:1024E00040F029F45F3F29F00C94011151110C9434
:1024F0004C110C9407110E94291168F39923B1F330
:10250000552391F3951B550BBB27AA276217730719
:10251000840738F09F5F5F4F220F331F441FAA1FAD
:10252000A9F335D00E2E3AF0E0E832D09150504069
:10253000E695001CCAF72BD0FE2F29D0660F771F17
:10254000881FBB1F261737074807AB07B0E809F0FD
:10255000BB0B802DBF01FF2793585F4F3AF09E3F82
:10256000510578F00C9401110C944C115F3FE4F389
:10257000983ED4F3869577956795B795F7959F5FC5
:10258000C9F7880F911D9695879597F90895E1E011
:10259000660F771F881FBB1F621773078407BA0770
:1025A00020F0621B730B840BBA0BEE1F88F7E095CB
:1025B00008950E94E0126894B1110C944C11089592
:1025C0000E94311188F09F5798F0B92F9927B75181
:1025D000B0F0E1F0660F771F881F991F1AF0BA95C7
:1025E000C9F714C0B13091F00E944B11B1E00895C9
:1025F0000C944B11672F782F8827B85F39F0B93FBB
:10260000CCF3869577956795B395D9F73EF4909579
:102610008095709561957F4F8F4F9F4F08950E94D1
:102620006D1008F48FEF08950E946D10880B990BC0
:102630000895EE0FFF1F0590F491E02D0994CF93BC
:10264000DF938230910510F482E090E0E091CD03B9
:10265000F091CE0320E030E0C0E0D0E0309711F1FF
:102660004081518148175907C0F04817590761F454
:1026700082819381209719F09B838A832BC090934A
:10268000CE038093CD0326C02115310519F04217E2
:10269000530718F49A01BE01DF01EF010280F381B4
:1026A000E02DDCCF2115310509F1281B390B243031
:1026B000310590F412968D919C91139761157105D7
:1026C00021F0FB019383828304C09093CE03809317
:1026D000CD03FD01329644C0FD01E20FF31F81934B
:1026E0009193225031092D933C933AC02091CB0312
:1026F0003091CC03232B41F420911301309114012C
:102700003093CC032093CB0320911101309112011F
:102710002115310541F42DB73EB740911501509177
:102720001601241B350BE091CB03F091CC03E2178B
:10273000F307A0F42E1B3F0B2817390778F0AC01E4
:102740004E5F5F4F2417350748F04E0F5F1F5093C1
:10275000CC034093CB038193919302C0E0E0F0E07F
:10276000CF01DF91CF9108950F931F93CF93DF9304
:10277000009709F48CC0FC013297138212820091F9
:10278000CD031091CE030115110581F42081318113
:10279000820F931F2091CB033091CC032817390768
:1027A00079F5F093CC03E093CB0371C0D80140E0FE
:1027B00050E0AE17BF0750F412962D913C9113973D
:1027C000AD012115310509F1D901F3CF9D01DA01E0
:1027D0003383228360817181860F971F821793074D
:1027E00069F4EC0128813981260F371F2E5F3F4F96
:1027F000318320838A819B8193838283452B29F4B3
:10280000F093CE03E093CD0342C01396FC93EE9376
:102810001297ED01499159919E01240F351FE2173E
:10282000F30771F480819181840F951F02961196B0
:102830009C938E938281938113969C938E9312978F
:10284000E0E0F0E0D80112968D919C9113970097EB
:1028500019F0F8018C01F6CF8D919C9198012E5FB3
:102860003F4F820F931F2091CB033091CC03281749
:10287000390769F4309729F41092CE031092CD03F2
:1028800002C0138212821093CC030093CB03DF911A
:10289000CF911F910F910895A0E0B0E0E2E5F4E13F
:1028A0000C949611EC01009721F4CB010E941F13A8
:1028B000B8C0FC01E60FF71F9C0122503109E21756
:1028C000F30708F4ACC0D9010D911C9111970617BC
:1028D0001707B0F00530110508F49FC0C801049730
:1028E0008617970708F499C002501109061B170BA9
:1028F000019311936D937C93CF010E94B4138DC00B
:102900005B01A01AB10A4C01800E911EA091CD036B
:10291000B091CE0340E050E0E12CF12C109709F487
:102920004AC0A815B905D1F56D907C901197630147
:1029300082E0C80ED11CCA14DB0480F1A3014A193D
:102940005B096A0182E0C80ED11C1296BC901297F6
:102950001396AC91B5E0CB16D10440F0B282A383BC
:1029600051834083D9016D937C930AC00E5F1F4F42
:10297000C301800F911FF90191838083EB2DFA2F02
:10298000E114F10431F0D7011396FC93EE93129702
:1029900044C0F093CE03E093CD033FC08D919C9152
:1029A00011974817590708F4AC017D0112960D9054
:1029B000BC91A02DB3CF8091CB039091CC0388150F
:1029C0009905E1F446175707C8F4809111019091D9
:1029D0001201009741F48DB79EB7409115015091B7
:1029E0001601841B950BE817F907C8F4F093CC0384
:1029F000E093CB03F901718360830FC0CB010E9488
:102A00001F137C01009759F0A801BE010E941B15FD
:102A1000CE010E94B413C70104C0CE0102C080E001
:102A200090E0CDB7DEB7EEE00C94B21181E090E01B
:102A3000F8940C943F15FB01DC0102C001900D924B
:102A400041505040D8F70895FC018191861721F03C
:102A50008823D9F7992708953197CF010895FB016D
:102A6000DC018D91019080190110D9F3990B089523
:102A7000FB01DC0101900D920020E1F7089510E0C8
:102A8000CBE7D0E004C0FE010E9419132196CC3799
:082A9000D107C9F7F894FFCF4C
:102A98000101F4010000FA3E1400010146001E0085
:102AA800010000CF03800000000000A902A60098E2
:102AB80001F002C901A701BB0173656E736F720053
:102AC80074656D704D756C3A002C74656D70416459
:102AD800643A000D0A00626F756E6461726965730D
:102AE8000074656D704D696E3A002C74656D704D9B
:102AF80061783A0066616E0066616E4164643A000E
:102B08002C66616E536C6565703A0064656C61791A
:102B18000064656C61793A00616C657274732E6348
:102B28006C65616E006F6B00636F6E6669672E730C
:102B380061766500636F6E6669672E6C6F6164000D
:102B4800636F6E6669672E636C65616E007570747D
:102B5800696D6500757074696D653A007420006868
:102B680020006D200072657365740073746174755C
:102B78007300756E6B6E6F776E20636D643A0074C8
:102B8800656D704D756C0074656D7041646400749A
:102B9800656D704D696E0074656D704D6178006685
:102BA800616E4164640066616E536C6565700074A3
:102BB8006573745761726E006D6F6E69746F720021
:102BC8007472756500616374697665300061637459
:102BD8006976653100616374697665320073657280
:102BE80069616C4563686F00756E6B6E6F776E20F8
:102BF8007365743A0054454D50303A002C46414EA6
:102C0800303A002C54454D50313A002C46414E3153
:102C18003A002C54454D50323A002C46414E323A37
:102C2800002C5741524E3A002F002C414C4552542B
:102C3800533A002420002A2A2A2043616E27742050
:102C48006C6F61642066726F6D20454550524F4D20
:102C58002C2077726F6E672076657273696F6E20AD
:102C680000206578706563746564207665727369A1
:102C78006F6E200066616E636F6E74726F6C006EAB
:0C2C8800616E00696E66006F76660000E9
:107E0000112484B714BE81FFF0D085E080938100F7
:107E100082E08093C00088E18093C10086E0809377
:107E2000C20080E18093C4008EE0C9D0259A86E02C
:107E300020E33CEF91E0309385002093840096BBD3
:107E4000B09BFECF1D9AA8958150A9F7CC24DD24C4
:107E500088248394B5E0AB2EA1E19A2EF3E0BF2EE7
:107E6000A2D0813461F49FD0082FAFD0023811F036
:107E7000013811F484E001C083E08DD089C08234E0
:107E800011F484E103C0853419F485E0A6D080C0E4
:107E9000853579F488D0E82EFF2485D0082F10E0AE
:107EA000102F00270E291F29000F111F8ED06801E7
:107EB0006FC0863521F484E090D080E0DECF843638
:107EC00009F040C070D06FD0082F6DD080E0C81688
:107ED00080E7D80618F4F601B7BEE895C0E0D1E017
:107EE00062D089930C17E1F7F0E0CF16F0E7DF06D8
:107EF00018F0F601B7BEE89568D007B600FCFDCFD4
:107F0000A601A0E0B1E02C9130E011968C91119780
:107F100090E0982F8827822B932B1296FA010C0160
:107F200087BEE89511244E5F5F4FF1E0A038BF0790
:107F300051F7F601A7BEE89507B600FCFDCF97BE46
:107F4000E89526C08437B1F42ED02DD0F82E2BD052
:107F50003CD0F601EF2C8F010F5F1F4F84911BD097
:107F6000EA94F801C1F70894C11CD11CFA94CF0C13
:107F7000D11C0EC0853739F428D08EE10CD085E9AC
:107F80000AD08FE07ACF813511F488E018D01DD067
:107F900080E101D065CF982F8091C00085FFFCCF94
:107FA0009093C60008958091C00087FFFCCF809118
:107FB000C00084FD01C0A8958091C6000895E0E648
:107FC000F0E098E1908380830895EDDF803219F02E
:107FD00088E0F5DFFFCF84E1DECF1F93182FE3DFCA
:107FE0001150E9F7F2DF1F91089580E0E8DFEE27F6
:047FF000FF270994CA
:027FFE00040479
:0400000300007E007B
:00000001FF
